:020000040000fa
:08000000009004000000000064
:020000040000fa
:020000040001f9
:102000000f2221000e7f22000e0188000000000038
:102010000c000700403c29000100200011000700cf
:10202000000020000000e00002003200000002007a
:102030000000000082a00200000000000040da0062
:102040000000fe004440a900601620000000e000ef
:102050000300320010002000a00188004440a800c6
:102060000000060091018800800078000000eb006d
:1020700015003700e280400032a0b4009101ba00a0
:10208000e280400032a0b4009102ba00e280400039
:1020900032a0b4000002eb00472bde00f507b200cf
:1020a000602ce10004003a000059eb008301e900d4
:1020b000fdff3e00040037006128e100010032000e
:1020c0000082eb00040007001101ba000200e000ea
:1020d000e8ff3a00000006003159ba008301e90028
:1020e0000c0032002159ba008301e90008003200d7
:1020f0000400e00003003a00e280400032a0b40097
:10210000f5ff370011d9ba008301e900faff3a0060
:102110008100e800e180400032a0b4000000060029
:082120000000000000000000b7
:020000040000fa
:020000040001f9
:0457f00033ff000083
:020000040000fa
:020000040001f9
:0457f400c0fc0000f5
:020000040000fa
:020000040001f9
:0457f8004f890000d5
:020000040000fa
:020000040001f9
:0457fc00603f00000a
:020000040000fa
:020000040001f9
:102800000000fa00889fbe008a1f780091028000b5
:10281000ff3ffc000aceb3000a4078004260b700d8
:102820009102880008c0280009002000cdc6bf0022
:102830000a4060003040b300cde6b70012ff070049
:10284000d016290021ff0700220424008800780008
:10285000090078003f070700001929001bff070047
:10286000cdc6bf000a406000cde6b70000ff0700fc
:102870000000fe004f0578004f04be000080fa0003
:04288000000006004e
:020000040000fa
:04400000aeba000054
:020000040000fa
:044004000090000028
:020000040000fa
:020000040001f9
:10212800fc900000ee900000ca90000000910000b2
:1021380006000000ff09000001a100000185000061
:10214800559500003f75000008260000ff000000bc
:1021580015000000294000001901000009010000d5
:102168009100000085610000953f0000750800009f
:1021780026ff00000015000000290000401900009b
:10218800010900000181000000c0000024030000d4
:1021980041000000530000007800000078000000b3
:1021a80078000000780000002000000042000000d5
:1021b8006f0000006f000000740000006c00000059
:1021c8006f0000006100000064000000650000006e
:1021d800720000000e030000610000006d000000a6
:1021e80073000000200000004100000047000000cc
:1021f800040300000904000009020000290000008f
:102208000101000000c000003209000004000000c5
:102218000002000003000000000000000921000087
:102228001101000000010000222e0000000700003c
:1022380005810000034000000001000007050000c0
:10224800010300004000000001000000120100002e
:1022580000020000000000000040000025130000fc
:10226800000000001602000001020000000100004a
:102278000d0a0000616d000073200000426f00002d
:102288006f7400006c6f00006164000065720000ec
:102298002056000065720000736900006f6e000030
:1022a800200000000d0a000000530000686f0000c5
:1022b80072740000637500007420000064650000fb
:1022c8007465000063740000656400000d0a000076
:1022d800000d00000a6500006e610000626c0000dd
:1022e800654200006f6f0000746c00006f610000b1
:1022f8006465000072280000292000007065000055
:10230800726d0000616e0000656e0000746c000064
:10231800790d00000a000000526500007365000096
:10232800740d00000a000000436f00006e66000094
:10233800696700002044000061740000612000000b
:1023480069730000202a00006e6f0000742a0000e4
:1023580020700000726f000067720000616d00005d
:102368006d650000640d00000a0000004572000061
:10237800726f0000722000006e6f0000206600007f
:102388006c61000073680000206100006674000042
:1023980065720000206300006f6e0000666900002f
:1023a8006720000064610000746100000d0a0000ed
:1023b80000550000736200002044000065740000ae
:1023c80061630000680d00000a000000526500000b
:1023d80073440000657600000d0a0000000000004c
:0c23e8000d0a00005b0000005d0000001a
:020000040000fa
:020000040001f9
:102884000000fa009ec0a900f00f20007024880008
:10289400502488002000200030258800a824ef0060
:1028a4008644a900f0092000802488006024880060
:1028b4008804a800012021004808de00c024880004
:1028c4009424a8009624ef00ac24ef009424a900db
:1028d4000001eb00010078000018eb000018eb0089
:1028e4000201e800e80f5100fbff3a00d00020008d
:1028f400502588008ac4bf000038a30005003200b8
:1029040082007800512488008ac4bf000038a300e4
:10291400fcff3a000071ef00f470ef00f570ef0077
:10292400f670ef0094a4a9000000eb00e30e210070
:10293400420e21008000780001b079000130790056
:102944000080e800e40f5000fbff3a0080202100e3
:102954007087880001007800f9f0b700d1878800fb
:102964000080fa00000006000000fa000001eb00fd
:102974008000eb0040072000bd0507008284a90009
:1029840000012000002488000080fa0000000600f6
:102994000000fa008284a80000012000502488006e
:1029a4000001eb008000eb0050072000b005070099
:1029b4000080fa00000006000000fa00aac4bf006c
:1029c4000018a30006003200528780009240900055
:1029d40000c8b30080cf500005003200aa24a9002b
:1029e40000082000502488000080fa00000006003f
:1029f400708780009040900040c8b30080cf5000a2
:102a0400f6ff3a006840400010419800aa24a9004b
:102a1400f3ff37000000fa0050878000104278006e
:102a24000481fb00510f2100914078008180fb005c
:102a3400f6d0bf004800dd0001007000800f510097
:102a440002003600004278000081fb0002005000c2
:102a5400f5f0b7004800de00f6f0b7000404e0002b
:102a6400110032008041eb000001eb000509210058
:102a7400210f2100914078008180fb00f3d0bf003a
:102a84004800dd000100700062d87a00f2f0b7005f
:102a94004800de00f3f0b7008341e8000201e800db
:102aa400834f5200f2ff3a00510f21009140780009
:102ab4008180fb00f6d0bf004800dd0001007000fb
:102ac4000e00320001c4b300408780000148780042
:102ad4004187800000092100900098005087800001
:102ae400104090000068a3001800320080c8b300b2
:102af400904098000080fa000000060001c4b30072
:102b0400408780000148780041878000000d210043
:102b14009000980040c8b30090409800710f2100c5
:102b2400914078008180fb00f8d0bf004800dd00b0
:102b3400010070000100320000000100f4f0a9005f
:102b44000080fa0000000600ecff370080ccb300e0
:102b5400904098000080fa0000000600e7ff37006c
:102b64000000fa008040eb0001007800e2f0b700ba
:102b74007087800011409800708780000020a200b8
:102b840011409800f450e20009003d00710f21004b
:102b9400914078008180fb00f8d0bf004800dd0040
:102ba400010070000100320000000100f4f0a900ef
:102bb4000080fa00000006000000fa00200e210048
:102bc40021c0b30090cf100011003200e4ff0700d1
:102bd400dc10e20003003200dc30ef000080fa0079
:102be4000000060001c4b30040878000014878005b
:102bf40041878000000d210090009800c0c8b300f8
:102c0400904098000080fa0000000600f5ff3700ad
:102c140080ff07000080fa0000000600f1ff370083
:102c24000000fa0001d1bf000080fb002110210048
:102c340091407800c808dd00808070000404200002
:102c4400f0032000808f500005003e000102780050
:102c5400e3d0bf005d003200e14f50005e0032005f
:102c64007287800012409000c820de00014070008e
:102c740010419800708780000448780011102100ea
:102c8400914078008180fb0002d1bf004800dd0044
:102c9400010070000400500001f1b7004800de009c
:102ca40002f1b70000092100008788000011ab0081
:102cb40024003a008001eb000400e00002003a0026
:102cc4000080fa000000060002878000e10f210066
:102cd400914078008180fb00ffd0bf004800dd00f8
:102ce400010070003059780002878800fef0b700b8
:102cf4004800de00fff0b7008301e800830f5200b4
:102d0400efff320002878000e10f2100914078003c
:102d14008180fb00ffd0bf004800dd00010070008f
:102d24003059780002878800fef0b7004800de00c2
:102d3400fff0b7008301e800830f5200e2ff3a007e
:102d4400dfff37008001eb000400e000dcff32000d
:102d540002878000e10f2100914078008180fb0010
:102d6400ffd0bf004800dd0001007000305978003a
:102d740002878800fef0b7004800de00fff0b700cd
:102d84008301e800830f5200cdff320002878000e8
:102d9400e10f2100914078008180fb00ffd0bf004b
:102da4004800dd0001007000305978000287880077
:102db400fef0b7004800de00fff0b7008301e80032
:102dc400830f5200e2ff3a00bdff370010c0b3008a
:102dd400e3f0b700a2ff370020c0b300e3f0b70070
:102de4009fff37000000fa00881f780094a4a90010
:102df40008c8b30000d1bf008840600010003a004a
:102e0400f450e2004600350001c4b300408780005e
:102e14000148780041878000000d2100900098004f
:102e2400c0c8b3009040980041c8b30070878000c8
:102e3400114098004f0478000080fa00000006005a
:102e4400f450e200fbff3500d0d0bf0088406000a2
:102e540033003200d6d0bf000080fb00720d210089
:102e6400124178004811dd000001710011102100a9
:102e7400914078008180fb0002d1bf004800dd0052
:102e840001007000800f510009003100610d210024
:102e9400914078008180fb00d7d0bf004800dd005e
:102ea4000100700001f1b7004800de0002f1b70034
:102eb4005bff070010c0b300e2f0b70001c4b30029
:102ec400408780000148780040878000020d21007f
:102ed400120098001840980050878000014878003c
:102ee400518780009200980040c8b3009040980039
:102ef40010002000e086880001092100708780000e
:102f04001100980081ccb3007087800011409800b4
:102f14004f0478000080fa0000000600c8ff370064
:102f240020c0b300e2f0b700708780000148780049
:102f340082ccb300708780001240980001c4b300b3
:102f44004087800001487800418780000009210003
:102f540090009800924098004f0478000080fa0096
:102f640000000600b6ff37000000fa00881f780052
:102f740070878000104090004600de00610460000d
:102f8400ee50aa00d0878000e80f500008003200fd
:102f9400200e210011c0b30090cf10000f003200aa
:102fa400effe07004f0478000080fa0000000600de
:102fb400d2d0bf000080fb00b02488009604e20059
:102fc40017003a0040002000d0878800200e21001e
:102fd40011c0b30090cf1000f1ff3a0000092100a6
:102fe40071878000900098000dff0700300e2100cb
:102ff40021c0b30090cf1000130032000804e00099
:103004000a00320081c8b300708780001140980024
:103014004f0478000080fa0000000600e4ff370047
:1030240000012000d0878800d9ff370081ccb3008d
:1030340070878000114098004f0478000080fa00e7
:1030440000000600daff370041c8b3007087800033
:10305400114098004f0478000080fa000000060038
:10306400d3ff37000000fa00010d210091407800e1
:1030740000c8b30080cf5000020032000080fa0084
:103084000000060000ccb30000f1b700d3d0bf00ad
:10309400e24f500012003200e34f5000250032008e
:1030a400e14f5000040032000071ef000080fa008c
:1030b40000000600f3ff3700a0122900fef0b7005d
:1030c4004800de00fff0b70020c1b30001f1b700f3
:1030d4000271ef000080fa0000000600e9ff3700eb
:1030e400d2d0bf000080fb0000004000a1092900ed
:1030f400010040009080fb008000fd00fef0b7005e
:103104008000fd00100078004800de00fff0b700ea
:103114004800dd00810070002140900001f1b700fb
:103124003140900002f1b7000080fa000000060070
:10313400d4ff3700d2d0bf00e24f5000daff3e0088
:10314400d2d0bf000080fb000000400041092900ec
:1031540060807800fef0b700c800de008000fd004b
:10316400fff0b7008000fd001080fb0001f1b70004
:103174000271ef000080fa0000000600c1ff370072
:103184000000fa0000f1a800ac24ef000000eb00fe
:1031940002202100820078008018eb008018eb00e8
:1031a4000000e800e80f5000fbff3a009424a80058
:1031b400ec70ef009424a90080202100708788001f
:1031c4005287880042878800d2d0bf00f9f0b70048
:1031d40004003a0000012000d08788000080fa0033
:1031e4000000060012002000910f210010002000b2
:1031f4009f03070000022000d08788000080fa00a7
:1032040000000600f7ff37000000fa009070ef009e
:103214009170ef00d0d0bf007f006000e10f50003c
:1032240015003200e20f5000150032000000e000eb
:103234000b0032000051e20007003d0000092100ac
:10324400fef0b7004800de00fff0b7000011a80050
:1032540020c0b30001f1b7000080fa0000000600ae
:1032640000f1a800e0878000e10f5000f1ff3a0070
:103274009030a800efff370000f1a800edff370001
:1032840000f1a800d450e2000b003d00d4d0bf00f0
:103294006f00600000004000e10e210060807800b3
:1032a400104090000028a300e2ff320010c0b300d9
:1032b40090f0b700dfff3700d4d0bf006f0060008c
:1032c40000004000410e210060807800f4ff3700c8
:1032d4000200fa00d2d0bf00e14f500028003200b3
:1032e400d250e20004003a00d0d0bf007f4060001a
:1032f400e24f5000020032000080fa000000060095
:10330400d4d0bf006f406000fbff320000f1a80082
:10331400d450e20023003d00d4d0bf006f00600011
:1033240000004000e10e2100608f7800d1d0bf0082
:10333400e34f50002b003200d4d0bf006f00600078
:1033440000004000a14a2000010040001014a10028
:10335400d450e20019003d008040eb001e007800cc
:10336400114098001e24a20001c4b3001e0078007e
:10337400114098000080fa0000000600e0ff3700ca
:10338400d0d0bf007f406000d5ff3a0000f1a80014
:10339400d1d0bf00e34f500018003200fc30ef00e2
:1033a400cfff3700d4d0bf006f00600000004000a2
:1033b400410e2100608f7800dcff370081c8b30024
:1033c4001e007800114098001e24a20081ccb30096
:1033d4001e007800114098000080fa0000000600ea
:1033e400c7ff370041c8b3001e00780011409800a1
:1033f4000080fa0000000600c1ff37001000200022
:10340400e0878800b6ff37000000fa00d0d0bf0084
:103414000046b20006003a00d1d0bf000080fb0095
:1034240001002000eb0f5000e08f5800020036002e
:103434000080fa0000000600006001000b00370065
:1034440043003700faff370041003700f8ff370028
:1034540039003700340037002c00370022003700d1
:103464001d0037000e0037000400370066ff070018
:103474000080fa0000000600efff370000f1a8000a
:10348400d4d0bf000080fb00c10e2100220d21001a
:1034940012f078000080fa0000000600e6ff370012
:1034a400d4d0bf000080fb00c10e21000100400009
:1034b400fef0b7004800de00fff0b7000011a800de
:1034c40010c0b30001f1b70000f1a8000080fa00b9
:1034d40000000600d8ff370029ff07000080fa002b
:1034e40000000600d4ff3700900f2100fef0b70063
:1034f4004800de00fff0b7000011a80010c0b300c0
:1035040001f1b70000f1a800f0ff37000001eb0063
:103514008000eb0020002000d50207000080fa00a4
:1035240000000600c4ff3700cefe07000080fa004a
:1035340000000600c0ff370000f1a8008000200052
:10354400d08788000080fa0000000600baff370028
:103554005fff07000080fa0000000600b6ff370096
:103564000000fa0071878000114090000004e00020
:1035740002003d000040eb0090409800e370ef0033
:10358400e270ef000171ef000271ef000071ef00d3
:103594009dff07000001eb008000eb0030002000dd
:1035a400b30207000ffe07000080fa0000000600c7
:1035b4000000fa00ded0bf008080fb0081017800ab
:1035c4000320a1000300e0000e003a00c10fb20086
:1035d4000020210000814000528788004287880033
:1035e400e850aa0012409000c043b20041c3b300a7
:1035f400814f5000090032006ffd07000080fa007f
:1036040000000600e88f5100fcff3a0056fe070058
:103614000080fa0000000600faff37001200900054
:1036240004092100840f500004003200ccff07007d
:103634000080fa0000000600f2ff3700000d2100b0
:10364400100198008300780064f078008100e8009d
:10365400e88f5000f5ff320064f078008100e80044
:10366400e88f5000f8ff3a00f0ff37000000fa003e
:10367400889fbe00fa10e2000e003a009424ef0086
:103684008c24ef002000200030258800a824ef00bf
:103694008644a900f0092000802488006024880062
:1036a40094c4bf000008a3002300320010002000cf
:1036b400d0878800d0878000e10f500027003200b7
:1036c40080c4bf000048a3000300320082c4bf00ce
:1036d4000048a30081003a0088c4bf000018a3007a
:1036e40011003a008ac4bf000008a30066003a0033
:1036f4008ac4bf000048a30059003a008ac4bf002e
:103704000028a3004a003a008a44e2004100350040
:103714008ac4bf000018a30031003a00d08780009b
:10372400e30f500018003e008ec0a9004f04be00f5
:103734000080fa00000006009404a80094c4bf00ae
:103744000008a300d9ff3a009404a80094c4bf0061
:103754000008a300f8ff3200d4ff370094c4bf0070
:103764000068a300d6ff3a00f00f20005024880020
:103774008c24ef008c04a8008c84a8002000200076
:10378400d0878800ceff37008cc4bf000038a30068
:10379400e5ff32000044eb00890020008ac4bf002a
:1037a4000038a300e0ff320090248000def0b70070
:1037b40059248800000fb2004c003a007cff070037
:1037c4000844e800e44f5400f4ff3a008ec0a90016
:1037d4004f04be000080fa0000000600d6ff370048
:1037e4008cc4bf000018a300ccff320012002000dc
:1037f4008000eb00f0ff27001d020700f00f2000ff
:1038040070248800d0878000e30f5000c6ff360084
:10381400ddff37008c44e200bdff3d0066fc07007d
:103824008ac4bf000018a300bcff3200ecff3700bd
:103834008cc4bf000028a300b3ff32001200200094
:103844008000eb0030072000090207004000200040
:10385400502488008a44e200adff3d00edff3700ac
:103864008cc4bf000048a300a4ff320048fc07003a
:1038740000012000502488008ac4bf000028a3004f
:10388400a1ff3200eaff37008cc4bf000008a30088
:1038940097ff3200fafb070040002000d087880021
:1038a400000d21001090880000c4b30000f2b7009e
:1038b40001d2bf006340600001f2b700c0c8b3008a
:1038c4000172b70010002000502488008ac4bf0091
:1038d4000048a30089ff3200e1ff37000001200007
:1038e4000024880020fc07007bff37000001eb0068
:1038f400e10d210020072000dd0107000844e80055
:10390400e44f5400a5ff3a00b0ff37000000fa006e
:103914000080fb00800140000180fb00008041002a
:103924004300dd000220210002014000124090000b
:103934000074a100104198000104e0000b003a005b
:10394400400e210082317800124090000064a100f2
:1039540010419800e4004100114090000064a00070
:10396400904098000080fa0000000600e00e21005c
:1039740082317800124090000064a1001041980048
:10398400e4004100114090000064a00090409800c1
:103994000080fa0000000600f4ff37000000fa007f
:1039a400889fbe00804478000080fb000000400037
:1039b400a24a2000017079000184fb000838a300aa
:1039c4000c003a000828a30003003a004f04be008c
:1039d4000080fa000000060011c0b300094078001e
:1039e400caff07004f04be000080fa000000060072
:1039f400f9ff37008040eb0009407800c3ff07005f
:103a04000828a300f1ff3200f3ff37000000fa009a
:103a1400014178000004e0000d003a0001c4b30045
:103a2400408780000148780041878000000d210014
:103a340090009800c0c8b3009040980041c8b300fb
:103a440070878000114098000080fa000000060092
:103a54008080fb00818040000280fb008080400069
:103a6400c308dd00022021000281400012409000c2
:103a740043c8b30003407000104198004020210067
:103a840080804000114090000340700090409800f6
:103a94000080fa0000000600edff37000000fa0085
:103aa400014378000104e000180032008082fb002a
:103ab40085804200e00e2100610278000400e000ed
:103ac4000f00320012029800034a7800144090005c
:103ad4000044b200104298001440900081c8b30022
:103ae40001407000104298000604e0000c003a0007
:103af40005804200410e2100010040001024a20074
:103b0400040078000080fa00000006008082fb00b8
:103b140085804200400e210061027800e7ff3700f3
:103b240005804200e10e2100010040001024a200a3
:103b3400040078000080fa0000000600f3ff37005c
:103b44000000fa008040780094c4bf000058a3002d
:103b5400180032000181fb0002014100e00e210047
:103b640000014100920178001300be00040420000b
:103b740000006200010020008089be0092017800ec
:103b8400000420000100200093196800939168004c
:103b94001224a20092007800114090000044b20068
:103ba4009040980092007800114090000440680012
:103bb400904098000080fa00000006000000fa001f
:103bc400a0882000a108210000d8eb00810f50003c
:103bd400fdff3a000080fa00000006000000fa0031
:103be4008448e20039003a003244800043448000b3
:103bf40000802a00800f5100e08f590049003200f4
:103c040000002700f1ff2f000200400083804800dd
:103c140004402100840f5000e08f58002800360033
:103c240000802a00800f5100e08f590037003e00c9
:103c3400e00f5100e08f590006003a00000029000f
:103c44005044880040002000604488008e28ef0023
:103c54009028ef0031448000404480002204240076
:103c64003b020700a58820000002eb001700240097
:103c74000680200032448000434480009301880081
:103c84001509bb0095009000304480000188bb00fa
:103c9400640242000404e0000f003200304480005b
:103ca4004144800062004000e080480030448800c5
:103cb40041448800e4824200860f5200edff3a003e
:103cc400beff07000080fa000000060032448000b6
:103cd40043448000caff3700073b8800500520009a
:103ce400303b8800a00a2000303b880061e7a80030
:103cf40000000000000000006147e200e7ff3d0013
:103d04006147e200fcff3500e4ff3700a01b2900f7
:103d1400edf90700a9ff07000080fa000000060083
:103d2400eaff370080192900e7f90700a3ff07001d
:103d34000080fa0000000600e4ff37000000fa00eb
:103d44000000eb00308888002088880010c0b30091
:103d540084e8b7008628ef008828ef0097ff070063
:103d64000080fa00000006000400fa00889fbe00ec
:103d74008a9fbe008c9fbe006011b800d08780006f
:103d8400ff0f50001a00360088c4bf000018a300bb
:103d940017003a00308880000000e0000300320081
:103da400104090000004e0001100350050c5b3003d
:103db4004248e3002000320010c6b30042e8b700d6
:103dc400208880000000e0000e00320010409000c7
:103dd4000004e0000b003d0003c4b3002284200073
:103de4008040eb0010c0b3002cff0700308888002f
:103df4004f06be004f05be004f04be000080fa000f
:103e04000000060003c4b3002284200011c0b300e4
:103e14000140780021ff07002088880003c4b30014
:103e2400228420008040eb0010c0b3001bff070079
:103e340030888800eeff370011e1a90043c8bf00b5
:103e4400e24f50005300320007003600e34f5000a9
:103e540058003200e44f5000d7ff3a0044c8bf0076
:103e640084e8b700d4ff3700e14f5000d2ff3a0096
:103e740044c8bf000080fb0001f02f000101610075
:103e84000001710045c8bf004800dd00f20fb20018
:103e94000001710046c8bf000080fb008181610001
:103ea4008081710047c8bf004800dd00f30fb200f5
:103eb4008081710048c8bf00004f78002e00320096
:103ec4000205be000043eb003444800045448000fa
:103ed400ad8820002c84200000c02f000000650065
:103ee4006104b800840f5400858f5c000600320022
:103ef4001607980039ff07000802be0038448800fe
:103f0400494488001e0390000400550085805d002c
:103f140000004000818048000001780010448800bf
:103f24008680fb006780400060407e0000f17e00d8
:103f34008201e8006880400060407e0080f17e00dd
:103f44008281e8006980400060407e0080f17e004c
:103f540063014100ea804000e1407e0001f17e00ff
:103f64006443430062054500e0854d009e407800af
:103f740086cf5000d8ff3e003084200080c0eb0084
:103f840090cf10008cff320010c1b30043e8b7009b
:103f940089ff370011ff0700d01d29004af90700e7
:103fa40000a02600810120007a0107000000fe0025
:103fb40081ff3700c0cfb30043e8b7007eff37006e
:103fc4000000fa00b2f907000080fa0000000600c1
:103fd4000000fa000080fa00000006000000fa0069
:103fe4000080fa00000006000000fa000080fa00d9
:103ff400000006000000fa00bb0007000080fa0081
:10400400000006000000fa000080fa00000006002c
:104014000000fa00d1c1b30010c0b3005ffe070076
:1040240003c4b300228420008040eb0010c0b3001e
:104034009afe0700308888000080fa00000006001d
:104044000000fa009444a80080702000004088001a
:104054008000eb008100e800808f5000fdff3a00f3
:104064000028ef009444a9000080fa000000060034
:104074000000fa0080007800e30f500011003200c5
:104084000900360020072000808f500017003200fe
:1040940063004000808f50000f00320010002000a9
:1040a4000080fa0000000600e10f5000fbff3a0018
:1040b400d7ff0700100020000080fa00000006006f
:1040c400f9ff3700cbff0700100020000080fa0042
:1040d40000000600f4ff3700b9ff070010002000bd
:1040e4000080fa0000000600efff37000000000027
:1040f400100020000080fa0000000600eaff3700ec
:020000040000fa
:020000040001f9
:1023f4000000fa000831ef000a31ef001e61a80066
:102404001ec1bf00f1ccb300014060000044a00035
:102414001ee1b7000080eb00d0088800e0088800c7
:102424009760a9009780a9000000eb00a00888002d
:10243400c00888001fe1a8000080fa000000060020
:102444000000fa00c008800001002000c000dd0088
:1024540000002000a2088000030020000200700099
:10246400838070000080fa00000006000000fa007b
:102474000000eb0000118800101188000080fa00b1
:10248400000006000000fa00d9ff0700f7ff07006c
:1024940080002000401188000000280000118800fe
:1024a4002342a8000080fa00000006000000fa00a1
:1024b4002322ab00feff3a000080fb0020118800bd
:1024c4000080fa00000006000000fa008000780096
:1024d400104078000004e00007003a000080fa0091
:1024e400000006000000fb00201188005140780025
:1024f4000004e000f9ff32002322ab00f9ff3200b0
:102504002322ab00fcff3a00f6ff37000400fa0078
:10251400804078000040eb00204798000181fb00d8
:102524006f006100e90f500016003c006fc06000ae
:102534000043b00010479800c410de006f806000b4
:10254400e90f500007003c0002c3b30002c0400082
:10255400004f78000e007800dbff07000080fa00cf
:102564000000060072c3b30002c04000004f7800b0
:102574000e007800d4ff07000080fa000000060077
:10258400f8ff37006fc060007043b000e9ff370008
:102594000600fa00800078000040eb0040479800f5
:1025a4006f806000e90f500022003e000043b0003d
:1025b400304798004408de006f006000e90f5000c7
:1025c4001a003e000043b000204798004808de008f
:1025d4006f006000e90f500012003e000043b0009d
:1025e400104798004c08de00e90f500006003e003a
:1025f4000043b000004f78000e007800b2ff0700df
:102604000080fa00000006007043b000004f78001c
:102614000e007800acff07000080fa0000000600fe
:10262400f9ff37007043b000edff37007043b0008e
:10263400e5ff37007043b000ddff37000000fa000b
:10264400889fbe008a1f7800000578007cff070081
:102654000004be00401f29009bff07004048de0025
:1026640001002000caff070008007800c8ff070027
:10267400801f290094ff07000a00780092ff0700da
:102684004f0578004f04be000080fa0000000600e9
:020000040000fa
:020000040001f9
:104104000000fa00889fbe002ca3ef0068a0a8005e
:104114006880a80030002000c822b700000000001a
:10412400000000000000000000000000000000008b
:10413400000000000000000000000000000000007b
:104144000000000050168000630060003f00320051
:1041540018002000e30f50003c00320068a0a900c2
:104164006880a900cdc6bf0001ceb3000140600045
:104174003040b300cde6b700c2f80700c0132900f1
:10418400d1f8070020c0b300e0f80700e0c2b30094
:10419400c6f8070060c1b300dcf80700e0c2b30052
:1041a400c2f8070010c0b300d8f807006015290052
:1041b400c5f8070044a7a800802520000000e900f6
:1041c400e10f4000fdff3a000800e00039003a002a
:1041d400c2ff28000300200082007800030078005a
:1041e400c60007000004be00e2ff28000300200010
:1041f4008200780003007800c00007000001be00c0
:10420400f0ff2f00f10f2000800f5100818f590023
:1042140002003a0002002900030020006140b800b7
:10422400e4aa2b00840f5000e08f580026003200cf
:10423400c2fe070092f907000cfd0700cafe070042
:104244000afd0700c8fe0700fbff37000004eb006f
:1042540068a0a9006880a900cdc6bf0001ceb30044
:10426400014060003040b300cde6b70085f8070098
:10427400c013290094f8070020c0b300a3f8070076
:10428400e0c2b30089f8070060c1b3009ff80700db
:10429400e0c2b30085f8070010c0b3009bf8070024
:1042a4006015290088f8070044a7a800802520008d
:1042b400c2ff37009015290083f807009ffe07000e
:1042c4006ff90700dcff3700003a800063006000ec
:1042d400d7ff3200020078008f00070097fe070026
:1042e40067f90700d4ff37000000fa00d0d0bf0000
:1042f4007f406000e14f5000020032000080fa006d
:1043040000000600410d2100914078000104e00006
:10431400faff3a00d1d0bf00e64f5000140032003b
:10432400d0d0bf000046b20001c2b300814f50009c
:10433400f2ff3a00d1d0bf00e34f50003500320005
:1043440026003600ea4f500052003200eb4f500076
:10435400eaff3a0000c8b30000f1b700d2d0bf00b2
:104364000cf1b7000080fa0000000600e5ff3700fa
:10437400320d2100124178007b404000804f5100f3
:10438400300032000040e800804f5100e4ff3a0062
:10439400900f210011c0b30090cf1000e0ff3a004d
:1043a400c0092900fef0b7004800de00fff0b700a6
:1043b400e0c2b30001f1b7000271ef0000ccb3001a
:1043c40000f1b700d0d0bf000046b20001c2b30074
:1043d400814f5000c9ff3a00d6ff3700e24f50002a
:1043e400c6ff3a00d0102100fef0b7004800de00fe
:1043f400fff0b70010c0b30001f1b7000271ef0085
:1044040010ccb30000f1b7000080fa0000000600f1
:10441400bcff3700c0102100fef0b7004800de00ea
:10442400fff0b70010c0b30001f1b7000271ef0054
:1044340010c8b30000f1b7000080fa0000000600c5
:10444400b0ff3700900f210012c0b300904f11004d
:10445400b3ff3a0020112900fef0b7004800de0047
:10446400fff0b70090c0b30001f1b700010078007d
:1044740002f1b70000ccb30000f1b700d0d0bf0008
:104484000046b20001c2b300814f50009bff3a00c6
:10449400a8ff370000c8b30000f1b700d3d0bf00b5
:1044a4000df1b7000080fa000000060095ff370008
:020000040000fa
:020000040001f9
:102694000000fa008724800066248000152480004e
:1026a4009ec0bf004600de006102600042c0bf0061
:1026b40001ceb300014060008000eb002e00320028
:1026c4009024ef008c24ef008224ef00cfc0bf00e1
:1026d40083cfb300034060000004a000cfe0b70044
:1026e4008ec0a9008284a800000120000024880074
:1026f4009ec0a80011242000914078008180fb0036
:10270400c708de0012262000124178000281fb0077
:102714004711de0041e2a90061e2a9000040fe0089
:10272400c708dd0041c2bf000074a1000140700071
:1027340041e2b7004711dd0061c2bf000074a1008f
:102744000240700061e2b700cfc0bf0003406000e8
:10275400cfe0b700c620dd009ec0bf000064a1002a
:10276400014070009ee0b70087248800662488003a
:102774001524880011002000010078000080fa0070
:04278400000006004b
:020000040000fa
:020000040001f9
:1044b4000000fa00003b880050052000303b8800d3
:1044c400a00a2000303b880061e7a800000000003b
:1044d400000000006147e200feff35000080fa00a2
:1044e400000006000000fa00900188008308bb0069
:1044f4008288bb000080fa00000006000000fa0079
:10450400900188001101ba009181ba000200be0036
:104514000080fa00000006000000fa00881f7800fe
:1045240000047800a01e2900e7f70700cdc6bf00ed
:1045340001ceb30001406000cde6b700cbf7070021
:10454400084001004f0478000080fa0000000600d3
:104554000000fa009301800090018800023b88006b
:104564008108bb0050052000303b8800a00a2000d1
:10457400303b880061e7a800000000000000000054
:104584006147e200feff3500930188000080fa00d5
:04459400000006001d
:020000040000fa
:020000040001f9
:102788000411000004000000020000000000000026
:1027980000000000000800008a0800000000000097
:1027a8008a1000007a0000000000000000120000fb
:1027b80020000000000000000c11000002000000d2
:1027c80000000000081100000400000000000000e4
:0427d80000000000fd
:020000040000fa
:020000040001f9
:10459800f03fb1000180b10006003500ee030900cc
:1045a80000000000403fb1000180b100fbff3d006a
:1045b8001000b000203fb000020035000080090064
:0845c8000000000000000600e5
:020000040000fa
:020000040001f9
:0827dc000040da000000fe00dd
:00000001FF
